:400000000080002011000000810900008109000080B500AF024A034B1B68136000F0ECFCBC760040FA46004010B5054C237833B9044B13B10448AFF300800123237010BD1B
:400040004881FF1F000000007C510000084B10B51BB108490848AFF300800848036803B910BD074B002BFBD0BDE81040184700BF000000004C81FF1F7C510000C880FF1F68
:4000800000000000154B002B08BF134B9D46A3F5803A00218B460F461348144A121A05F064F80F4B002B00D098470E4B002B00D098470020002104000D000D48002802D0D6
:4000C0000C48AFF3008005F01FF82000290000F021F805F005F800BF000008000000000000000000000000004881FF1FE881FF1F000000000000000080B500AF00F036FEFD
:400100000349102002F08AFD62B600BF80BD00BFA902000080B582B000AF0023BB71FFF7EBFF00F059F80346012B16D10023BB71124B9B78DBB2012B0CD100F045FA03469D
:40014000FB71012001F044FBFB79DBB2184600F007F90EE000F0F6F80BE0BB79DBB2072B02D900F0EFF804E0BB79DBB20133DBB2BB71322002F03EFAD3E700BF6881FF1F89
:4001800080B584B000AF03460A46FB711346BB7197F90630184600F0BFF80346FB810D4B0022DA720B4AFB7993720A4AFB891BB21B121BB2DBB203F07F03DBB25372054B36
:4001C000FA8912B2D2B21A7201F05AFA00BF1037BD4680BD20A0004080B400AF2F4B1B78DBB2002B54D02E4BDB7ADBB29BB21A46920013441A4691001A460B4613449B00CC
:400200009AB2284B1A80274B1B889BB2B3F57A7F03D9244B01229A7002E0224B00229A701F4B9B7ADAB21F4BDA701D4B5B7ADAB21C4B1A711A4B1B7ADAB21A4B5A71184BDC
:40024000DB7BDBB2002B03D0164B01229A7102E0144B00229A71134B1B889BB243F2B06293420ED80F4BDB78DBB2052B09D80D4B1B79DBB2642B04D80A4B5B79DBB2822BBE
:4002800001D9002305E0054B00221A70012300E000231846BD4680BC704700BF6481FF1FA0A000406881FF1F80B400AF084B10225A70084B01221A70074A074B1B78DBB2A7
:4002C00043F00103DBB2137000BFBD4680BC704700A000406481FF1FA0A0004080B483B000AF0346FB71FB79312B01D800230BE0FB79642202FB03F3A3F59C53083B054A17
:40030000A2FB03231B09DBB218460C37BD4680BC704700BF1F85EB5180B483B000AF0346FB7197F907201346DB039B1A044AA2FB03235B091BB218460C37BD4680BC7047CC
:400340001F85EB5180B500AF002000F009F84FF4FA7002F04FF9002001F03AFA00BF80BD80B582B000AF0346FB71304BDB78DBB2002B04D02D4B5B79DBB25A2B02D900F032
:4003800059F845E0294B5B79DBB2022B05D8FB79012B02D000F04EF83AE000F047F90346012B0ED1214B9B79DBB2002B09D1FB79002B06D01E4B02221A701D4B64225A704C
:4003C00026E0FB79052B21D801A252F823F000BFE9030000EF030000F5030000FB030000010400000704000000F024F810E000F02FF80DE000F032F80AE000F05BF807E089
:4004000000F082F804E000F0ADF801E000F012F8074B1B78DAB2064B5B785BB219461046FFF7AEFE00BF0837BD4680BD6881FF1F7081FF1F80B400AF044B00221A70034B85
:4004400000225A7000BFBD4680BC70477081FF1F80B500AFFFF7EEFF00BF80BD80B500AF124B1B889BB241F64C5293421AD80F4B5B79DBB22D2B15D80C4B1B79DBB24F2B4A
:4004800010D90A4BDB78DBB2012B0BD1074B9B79DBB2002B06D1064B02221A70044B64225A7001E0FFF7C6FF00BF80BD6881FF1F7081FF1F80B500AF114B9B79DBB2002BC9
:4004C00019D10F4B1B79DBB2312B06D80D4B00221A700C4B00225A700FE00A4B02221A70074B1B79DBB21846FFF7F8FE03465AB2044B5A7001E0FFF79DFF00BF80BD00BFCB
:400500006881FF1F7081FF1F80B500AF134B9B79DBB2002B19D1114B1B79DBB2312B06D80F4B00221A700E4B00225A7013E00C4B02221A70094B1B79DBB21846FFF7CEFE1E
:4005400003465AB2064B5A7005E0054B08221A70034B64225A7000BF80BD00BF6881FF1F7081FF1F80B500AF154B9B79DBB2002B12D1134B1B79DBB2322B0DD9114B02227E
:400580001A700F4B1B79DBB21846FFF7A7FE03465AB20C4B5A7011E0094B9B79DBB2002B06D1084B08221A70064B32225A7005E0044B08221A70034B64225A7000BF80BDE7
:4005C0006881FF1F7081FF1F80B582B000AF03F057FE0346002B02D10123FB7121E003F0ABFE0346002B02D10223FB7119E003F0B7FF0346002B02D10323FB7111E003F0DC
:4006000053FF0346002B02D10423FB7109E003F0EFFE0346002B02D10523FB7101E00023FB71FB7918460837BD4680BD80B582B000AF01F0B1F80346002B0CBF01230023F3
:40064000DBB2FB71FB7918460837BD4680BD00BF80B582B000AF786039603A680021786804F083FD00BF0837BD4680BD80B584B000AFF860B9607A607A68B968F86804F0DB
:4006800069FD00BF1037BD4680BD00BF80B584B000AFF860B9607A607A68B968F86804F059FD00BF1037BD4680BD00BF80B483B000AF0346FB71FEE780B487B000AF786018
:4006C000396000233B6100237B6127E07B699B007A6813441B68BB60BB68FB73BB6823F0FF03BB6014E03B695B003A6813441B781A46BB68134419463B695B003A681344B2
:400700005B780B703B6901333B61FB7B013BFB73FB7B002BE7D17B6901337B617B69042BD4D900BF1C37BD4680BC704780B582B000AF294B02221A704FF0402308221A7034
:40074000264B03221A70264B264A1278D2B21A70254B08221A80254B41F251221A800023FB7019237B6014E0FB785B00DAB2204B1B78DBB203F00103DBB21343DBB203F024
:400780000303FB704FF4F07003F00AFF7B68013B7B607B68002B02D0FB78032BE4D17B68002B02D10320FFF781FF124B4FF480721A80104B07221A700F4B00221A700F4BE5
:4007C00048221A700B4B00221A700D4B02221A7000BF0837BD4680BD0043004000420040A146004008010049224200402042004025420040044000400640004008400040C2
:400800000140004080B483B000AF0B4B1B78FB710A4AFB7903F00703DBB21370084AFB791B09DBB21370074B44221A7000BF0C37BD4680BC704700BFCF0100496E580040E5
:400840006F5800407658004080B485B000AF0346FB71064B1B78FB73FB79002B034AFB7B137000BF1437BD4680BC70477658004080B582B000AF72B6314A314B1B78DBB2FC
:4008800043F00403DBB213700023FB7113E0FA7913465B0013445B002A4A13443B603B681A683B689B889BB219461046FFF7D0FEFB790133FB71FB79082BE8D922494FF056
:4008C0009040FFF7F9FE214A204B1B78DBB243F00203DBB213701E4A1D4B1B78DBB243F00203DBB2137008221A491B48FFF7BEFE08221A491A48FFF7B9FE0A2219491A4897
:40090000FFF7B4FE194A194B1B78DBB243F00803DBB21370164B61221A70FFF707FF144B81221A70134B01221A70FFF76BFF0E2211491248FFF79AFE00BF0837BD4680BDC9
:40094000E8460040885100001400004803500140135001403C000048F251004044000048125100404C00004830510040224300400048004004000840A0430040B043004042
:4009800080B500AF04F0A6FB03461B680C2B00D1FEE7FEE780B582B000AF78607B68DBB2184601F00BFEFEE780B584B000AF78600F4B1A687B6813441A460E4BD31A802B2E
:4009C00009DC0B4B1B68FB60094B1A687B681344074A136007E004F07DFB02460C2313604FF0FF33FB60FB6818461037BD4680BDD080FF1FE881FF1F80B586B000AF224B3D
:400A00007B61224B3B61204B7B6135E03B691B68FB603B695B68BB603B699B683B6000237B600CE0FB681A68BB681A60BB680433BB60FB680433FB607B6804337B607A6882
:400A40003B689A42EED13B69DB683B6000237B6008E0BB6800221A60BB680433BB607B6804337B607A683B689A42F2D13B6910333B617B69013B7B617B69002BC6D104F06A
:400A800043FBFFF747FBFEE7010000005C53000080B582B000AF184B184A1A60184A184B1B6843F40073136000237B600FE07B68032B04D8134A7B6852F8233000E0124B7D
:400AC00012497A6841F822307B6801337B607B682F2BECD90E4B1B78DAB20E4B1A700E4B0A4A1A60FFF7C4FE0C4B00221A6000BF0837BD4680BD00BF0CED00E00004FA0534
:400B000014ED00E000000000810900000080FF1FBC760040C480FF1F08ED00E0C080FF1F80B582B000AF0023FB710023BB7112E0BA7913465B0013449B00174A13441846D0
:400B400000F072FC0346002B02D00123FB7105E0BB790133BB71BB79072BE9D9FB79002B15D10023BB710FE0BB791B010B4A1344184600F0E3FB0346002B02D00123FB71DF
:400B800005E0BB790133BB71BB790F2BECD9FB7918460837BD4680BDC05100002052000080B582B000AF4FF4F0537B600123FB700123BB7003F0FCFC03467B703D4A3D4B32
:400BC0001B78DBB243F00103DBB213703A4A3A4B1B78DBB243F00103DBB213707B78184603F0EAFC354A354B1B78DBB223F00103DBB2137002E07B68013B7B607B68002BC4
:400C000006D02E4B1B78DBB203F00103002BF2D17B68002B49D02A4B4FF480321A602949102001F0FBFF0721102002F03BF8022000F040F90346002B1CD1002000F05AF93C
:400C40000346002B16D1002303220421092000F087F90346002B0DD1002000F0EBF90346002B07D1002000F01BFA0346002B01D10023BB70BB78002B17D1FFF751FF0346F3
:400C8000002B12D141F2010000F0F4FA0346002B0BD10A4B00221A70084B1B78DBB203F00103002B01D10023FB70FB7818460837BD4680BDA6430040B643004010A000402C
:400CC00080E100E0B114000080B582B000AF4FF410737B600123FB7003F06AFC0346BB701D4A1D4B1B78DBB243F00103DBB213701A4A1A4B1B78DBB243F00103DBB2137075
:400D0000BB78184603F058FC154B41F201021A6000F094F8134B4FF480321A60124A124B1B6843F00103136002E07B68013B7B607B68002B05D00C4B1B6803F00103002BE1
:400D4000F3D07B68002B01D00023FB70FB7818460837BD4680BD00BFA6430040B643004000A0004000E100E010A0004080B582B000AF0023FB710B4B1B78002B03D1FFF7BE
:400D80000FFF0346FB71FB79002B06D1054B01221A70FFF799FF0346FB71FB7918460837BD4680BD7281FF1F80B582B000AF4FF4F0537B600123FB701C4A1C4B1B6823F0EF
:400DC0000103136002E07B68013B7B607B68002B05D0164B1B6803F00103002BF3D17B68002B1DD00023FB70114B4FF480321A6003F0DEFB0346BB700E4A0E4B1B78DBB28E
:400E000023F00103DBB213700B4A0B4B1B78DBB223F00103DBB21370BB78184603F0CCFBFB7818460837BD4680BD00BF10A0004080E100E0A6430040B643004080B483B045
:400E400000AF0123FB710B4A0A4B1B78DBB243F00103DBB21370074B1B78DBB203F00103002B01D00023FB71FB7918460C37BD4680BC704704A0004080B483B000AF012305
:400E8000FB710B4A0A4B1B78DBB223F00103DBB21370074B1B78DBB203F00103002B01D10023FB71FB7918460C37BD4680BC704704A0004080B485B000AF0346FB800223F0
:400EC000FB73B7F90630002B0CDB0123FB73084AFB881380064B1B889BB2FA889A4201D10023FB73FB7B18461437BD4680BC704716A0004080B485B000AF0346FB71012394
:400F0000FB73FB79002B11D1144A144B5B78DBB223F01003DBB25370104B5B78DBB203F01003002B13D10023FB7310E00B4A0B4B5B78DBB243F01003DBB25370074B5B7818
:400F4000DBB203F01003002B01D00023FB73FB7B18461437BD4680BC704700BF14A0004090B484B000AF0446084611461A462346FB710346BB710B467B7113463B71022362
:400F8000FB73FB79012B4CD9FB790F2B49D8BB79012B02D9BB79072B05D93B79002B40D1BB79012B3DD17B79032B3AD87A79FB799A4236D87A79BB799A4232D80123FB732E
:400FC0001B4B5B78BB73BB7B23F00F03BB73BA7BFB791343BB73164ABB7B5370144B5B78DBB2BA7B9A421CD10023BB733B79002B01D00223BB73BB795B01DAB27B799B00BF
:40100000DBB21343DAB2BB7B1343BB73084ABB7B1370074B1B78DBB2BA7B9A4201D10023FB73FB7B18461037BD4690BC704700BF14A0004080B485B000AF0346FB710123D1
:40104000FB73FB79002B11D1144A144B1B78DBB223F01003DBB21370104B1B78DBB203F01003002B13D10023FB7310E00B4A0B4B1B78DBB243F01003DBB21370074B1B7857
:40108000DBB203F01003002B01D00023FB73FB7B18461437BD4680BC704700BF14A0004080B485B000AF0346FB710123FB73FB79002B11D1144A144B1B78DBB223F0010374
:4010C000DBB21370104B1B78DBB203F00103002B13D10023FB7310E00B4A0B4B1B78DBB243F00103DBB21370074B1B78DBB203F00103002B01D00023FB73FB7B18461437B7
:40110000BD4680BC704700BF14A0004080B485B000AF0346FB710123FB720023BB722C4B1B78DBB203F00103002B02D1FB79012B01D10123BB72264B00221A704FF4F05366
:40114000FB6002E0FB68013BFB60FB68002B06D01F4B1B78DBB203F00103002BF2D1FB68002B01D00023FB72FB7A002B29D1FB79002B26D0FB79022B02D1154B02221A70C5
:40118000BB7A012B1DD1124A114B1B78DBB243F00103DBB213704FF41073FB6002E0FB68013BFB60FB68002B06D0094B1B78DBB203F00103002BF2D0FB68002B01D1012384
:4011C000FB72FB7A18461437BD4680BC704700BF10A0004080B485B000AF786039600223FB737B689BB24AF29F02934238D97B689BB24AF29C22934232D80123FB737B6832
:4012000003F01F03002B19D13B6843F080133B60164B4FF480321A607B683A681A60144B4FF480321A607B681A683B68534003F07F13002B14D10023FB7311E00B4B4FF498
:4012400080321A607B683A681A60094B4FF480321A607B681A683B689A4201D10023FB73FB7B18461437BD4680BC704780E100E000E100E080B485B000AF0346FB80012322
:40128000FB73084AFB881380064B1B889BB2FA889A4201D10023FB73FB7B18461437BD4680BC704704A0004080B400AF064B9B78DBB203F00403002B01D0012300E000236C
:4012C0001846BD4680BC70470CA0004080B400AF064B9B78DBB203F00803002B01D0012300E000231846BD4680BC70470CA0004080B400AF034B1B78DBB21846BD4680BC8B
:40130000704700BF0CA0004080B400AF034B5B78DBB21846BD4680BC704700BF0CA0004080B400AF044B9B78DBB203F00303DBB21846BD4680BC70470CA0004080B485B0BA
:4013400000AF78600123FB737B681B785A01354B13441A467B685B6843F0801313607B681B785A012F4B13441B6803F07F127B685B6823F080139A424DD17B681B785A01AD
:40138000284B134410337A6892681A607B681B785A01244B134410331A687B689B689A4239D17B681B785A011E4B134414337A68D2681A607B681B785A011A4B1344143360
:4013C0001A687B68DB689A4225D17B681B785A01144B134418334FF0FF321A607B681B785A01104B134418331B68B3F1FF3F12D17B681B785A010B4B13441C3300221A6038
:401400007B681B785A01074B13441C331B68002B01D10023FB73FB7B18461437BD4680BC704700BFA0A0004080B485B000AF78600123FB737B681B781A011B4B13441A464E
:401440007B685B6843F4000343F0080313607B681B781A01144B13441B68144A1A407B685B6823F4000323F008039A4215D17B681B781A010C4B134404337A6892681A60ED
:401480007B681B781A01084B134404331A687B689B689A4201D10023FB73FB7B18461437BD4680BC704700BF20A00040F7007F0080B400AF00BFBD4680BC704780B487B0C6
:4014C00000AF786000233B750123FB74A2E001237B750023FB7591E07B7D03F00103DBB2002B40F08280514B9B78DAB27B7D1340DBB2002B79D10023FB607B681B79002BE4
:4015000002D04FF40013FB607B685B79002B09D1FB7D1A01464B134404337A68126852051A600CE0FB6843F48013FB60FB7D1A013F4B134404337A681268D2001A607B68E3
:401540009B79072B06D87B689B791B04FA681343FB6003E0FB6843F40023FB607B68DB79002B03D0FB6843F00403FB600023BB7517E0FB7D1A012E4B1344BA7D032A03D909
:40158000BA7DC2F10B0202E0BA7DC2F1030279688868B97D415C13440A461A72BB7D0133BB757B689B79BA7D9A4202D2BB7D072BDFD9204B4FF480321A60FB7D1A011C4B1C
:4015C00013441A46FB6843F4000343F008031360FB7D1A01164B13441A4601231360164B4FF480321A600023FB747B7D5B007B75FB7C002B07D0FB7D0133FB75FB7D072BC0
:401600007FF66AAF00E000BFFB7C002B07D03B7D01333B753B7D022B7FF659AF00E000BFFB7C18461C37BD4680BC704708A0004020A0004080E100E000E100E080B483B0F8
:4016400000AF0346FB71FB79072B12D8FB791A010A4B1344FA791101084A0A441278D2B252B222F0030252B242F0020252B2D2B21A7000BF0C37BD4680BC704720A00040A9
:4016800080B483B000AF0023FB710B4B1B78DBB203F00103002B02D00123FB7105E0064A054B1B6843F001031360FB7918460C37BD4680BC704700BF20A0004080B483B0A8
:4016C00000AF0346FB71FB795A010D4B13441B78DBB203F00103002B0DD0FB795A01084B1344FA795101064A0A441278D2B242F00102D2B21A7000BF0C37BD4680BC7047C4
:40170000A0A0004080B400AF054A054B1B78DBB243F00103DBB2137000BFBD4680BC7047A0A0004080B485B000AF0346FB710A4B1B78DBB223F00103FB730749FB7903F08D
:401740000103DAB2FB7B1343DBB20B7000BF1437BD4680BC704700BF3051004080B483B000AF0346FB710B490A4B1B78DBB25BB223F00E035AB297F9073003F00E035BB2DC
:4017800013435BB2DBB20B7000BF0C37BD4680BC704700BF1850004080B400AF044B1B78DBB203F00103DBB21846BD4680BC70473151004080B400AF044B1B78DBB203F02E
:4017C0000103DBB21846BD4680BC70473051004080B485B000AF0346FB71094B1B78DBB203F07F03FB730649FB79DB01DAB2FB7B1343DBB20B7000BF1437BD4680BC704720
:401800001051004080B483B000AF0346FB710B490A4B1B78DBB25BB223F00E035AB297F9073003F00E035BB213435BB2DBB20B7000BF0C37BD4680BC704700BF0F5000409D
:4018400080B400AF054B1B78DBB203F08003DB09DBB21846BD4680BC704700BF1151004080B400AF054B1B78DBB203F08003DB09DBB21846BD4680BC704700BF105100408B
:4018800080B584B000AF0346FB710023FB60234A224B1B78DBB243F00103DBB21370FB79002B36D01E4B1B78DBB203F00403FB721C4B1B78BB721C4B1B787B72182002F0CF
:4018C000BBF91023FB6010E0184B1B78DBB203F00103002B09D0154B1B78DBB203F00103002B02D00023FB6008E0012002F05AF8034603F00103DBB2002BE5D0FB7A002BAC
:4019000001D100F0FBFB074ABB7A1370064A7B7A1370FB6818461037BD4680BD204200400043004080430040824300402542004080B400AF054A054B1B78DBB223F0010349
:40194000DBB2137000BFBD4680BC70472042004080B582B000AF0346FB710B46BB7113467B711C4B1B78DBB203F00103002B02D0002000F023FEFB79072B23D9BB79102BB6
:4019800020D8BB79002B1DD07B79002B1AD07B79072B17D8104AFB791370104ABB79013BDBB213700E490E4B1B78DBB223F07003DAB27B79013BDBB21B01DBB21343DBB26F
:4019C0000B7002E0002000F0F9FD00BF0837BD4680BD00BF2042004022420040234200402142004080B582B000AF0346FB71124B1B78DBB203F00103002B02D0002000F0AD
:401A0000DDFDFB790033022B0DD84FF040214FF040231B78DBB223F00303DAB2FB791343DBB20B7003E0002000F0C8FD00BF00BF0837BD4680BD00BF2042004080B584B0BB
:401A400000AF0346FB711D4A1C4B1B78DBB243F01003DBB213701A4A194B1B78DBB243F01003DBB21370FB79002B23D0154B1B78DBB203F00403FB73134B1B78BB73134B89
:401A80001B787B73002002F0D7F800BF012001F089FF034603F00103DBB2002BF6D0FB7B002B01D100F02AFB074ABB7B1370074A7B7B137000BF1037BD4680BDA0430040E8
:401AC000B043004000430040804300408243004080B400AF094A094B1B78DBB223F01003DBB21370064A064B1B78DBB223F01003DBB2137000BFBD4680BC7047A043004079
:401B0000B043004080B483B000AF0023FB71124B1B78DBB203F00703002B06D10F4B1B78DBB203F00103002B0DD10B4B1B78DBB203F00703012B08D1094B1B78DBB203F0F8
:401B40000103002B01D00123FB71FB7918460C37BD4680BC704700BF93430040A5430040B543004080B584B000AF0346FB71FFF7C9FF0346FB73FB7B012B07D1314A314BE2
:401B80001B78DBB223F00203DBB21370FB79082B4FD801A252F823F0BD1B0000C91B0000D51B0000E11B0000ED1B0000F91B0000051C0000331C0000111C0000224B234AD4
:401BC0001278D2B21A7039E01F4B214A1278D2B21A7033E01C4B1F4A1278D2B21A702DE0194B1D4A1278D2B21A7027E0164B1B4A1278D2B21A7021E0134B194A1278D2B2A7
:401C00001A701BE0104B174A1278D2B21A7015E00D4B154A1278D2B21A70FB7B012B0CD1084A084B1B78DBB243F00203DBB2137003E0002000F0C2FC00E000BF00BF1037A5
:401C4000BD4680BD09600040A146004008010049090100490A0100490B010049890100490C0100490D0100490F01004980B584B000AF0346FB71684B1B78DBB203F0070390
:401C8000FB73FB79082B01D0FB7900E00323BB73FB7B062B25D801A252F823F0B91C0000BF1C0000C51C0000CB1C0000D11C0000D71C0000DD1C00000223FB7315E00123F5
:401CC000FB7312E00323FB730FE00023FB730CE00423FB7309E00523FB7306E00623FB7303E0002000F06AFC00BFBA7BFB7B9A4203D3FB791846FFF735FFFB79082B72D891
:401D000001A252F823F000BF2D1D0000451D00005D1D00006F1D0000871D00009F1D0000B71D0000E71D0000CF1D00003A4A3A4B1B78DBB223F04703DBB243F00303DBB235
:401D4000137054E0344A344B1B78DBB223F04703DBB243F00103DBB2137048E02E4A2E4B1B78DBB223F04703DBB213703FE02A4A294B1B78DBB223F04703DBB243F002036F
:401D8000DBB2137033E0244A234B1B78DBB223F04703DBB243F00403DBB2137027E01E4A1D4B1B78DBB223F04703DBB243F00503DBB213701BE0184A174B1B78DBB223F0B2
:401DC0004703DBB243F00603DBB213700FE0124A114B1B78DBB223F04703DBB243F04203DBB2137003E0002000F0E8FB00BFFB79082B02D100F058F801E000F065F8BA7BD5
:401E0000FB7B9A4203D2FB791846FFF7ABFE00BF1037BD4680BD00BF0042004080B582B000AF0346FB71FB79012B17D0022B02D0002B26D02EE04FF040224FF040231B782D
:401E4000DBB223F04003DBB21370164A154B1B78DBB243F02003DBB213701FE04FF040224FF040231B78DBB243F04003DBB213700C4A0C4B1B78DBB243F02003DBB213700E
:401E80000CE0084A074B1B78DBB223F02003DBB2137003E0002000F091FB00BF00BF0837BD4680BD0042004080B400AF054A054B1B78DBB243F01003DBB2137000BFBD4674
:401EC00080BC70470042004080B400AF054A054B1B78DBB223F01003DBB2137000BFBD4680BC70470042004080B483B000AF0346FB710949084B1B78DBB223F00303DAB229
:401F0000FB7903F00303DBB21343DBB20B7000BF0C37BD4680BC70470540004080B483B000AF0346FB71044AFB79137000BF0C37BD4680BC704700BF0440004080B483B01A
:401F400000AF0346FB80154A144B1B78DBB223F00F03DBB21370124B00221A70114A114B1B78DBB263F07F03DBB213700E4BFA88D2B21A700D4AFB881B0A9BB2DBB21370D1
:401F80000B4A0B4B1B78DBB243F00103DBB2137000BF0C37BD4680BC704700BF14400040104000400840004002400040034000400140004080B584B000AF0346FB8002F058
:401FC000F7FA0346FB73244B1B78DBB29BB21B02BB81224B1B78DBB29AB2BB891343BB81FB88002B02D0BB89002B29D11C4B1B78FB72FB7A062B02D80720FFF78FFFFB8857
:40200000002B0CD1174A174B1B78DBB243F04003DBB21370FB881846FFF790FF0BE0FB881846FFF78BFF0F4A0E4B1B78DBB223F04003DBB21370FB7A1846FFF76FFF03E02B
:40204000FB881846FFF77AFFFB7B184602F0B4FA00BF1037BD4680BD0740004006400040044000400840004080B483B000AF0346FB710949084B1B78DBB223F00303DAB208
:40208000FB7903F00303DBB21343DBB20B7000BF0C37BD4680BC70470940004080B400AF054A054B1B78DBB243F00203DBB2137000BFBD4680BC70470043004080B400AF42
:4020C000054A054B1B78DBB223F00203DBB2137000BFBD4680BC70470043004080B400AF054A054B1B78DBB243F00403DBB2137000BFBD4680BC70470043004080B400AFBA
:40210000054A054B1B78DBB223F00403DBB2137000BFBD4680BC70470043004080B400AF054A054B1B78DBB243F02003DBB2137000BFBD4680BC70470043004080B400AF5B
:40214000054A054B1B78DBB223F02003DBB2137000BFBD4680BC70470043004080B483B000AF0346FB714FF040214FF040231B78DBB223F00C03DAB2FB799B00DBB203F0B8
:402180000C03DBB21343DBB20B7000BF0C37BD4680BC704780B485B000AF0346FB710F4B1B78FB73FB79002B06D00C4AFB7B43F01003DBB2137005E0084AFB7B23F010039B
:4021C000DBB21370FB7B1B09DBB203F00103DBB218461437BD4680BC704700BF0043004080B582B000AF1C4BF3221A701B4B03221A701B4A1A4B1B78DBB223F00C03DBB279
:4022000043F00403DBB21370164A164B1B78DBB243F00103DBB213704FF47A73FB8012E000F04AF8034603F02003002B03D0002000F050F80BE0012000F0FEF9FB889BB2E5
:40224000013B9BB2FB80FB889BB2002BE8D100BF0837BD4680BD00BF0A43004098460040094300400843004080B400AF0E4BF3221A700E4B00221A700D4A0D4B1B78DBB238
:4022800023F00C03DBB243F00403DBB21370094A084B1B78DBB223F00303DBB2137000BFBD4680BC704700BF0A43004098460040094300400843004080B400AF044B1B783B
:4022C000DBB203F02003DBB21846BD4680BC70470843004080B584B000AF0346FB71264B1B78DBB203F00203002B01D0012300E00023FB73214BF3221A70FB79012B1CD150
:402300001F4B01221A700A2000F096F91D4A1D4B1B78DBB223F00C03DBB243F00803DBB21370142000F088F9134A134B1B78DBB243F00203DBB2137018E0114B06221A7023
:402340000A2000F079F90F4A0E4B1B78DBB223F00C03DBB243F00403DBB21370064A064B1B78DBB223F00203DBB21370FB7B18461037BD4680BD00BF084300400A430040EB
:40238000984600400943004080B586B000AF0346FB7100237B61FB793B742B4A2A4B1B78DBB243F00103DBB21370FB79002B45D0264B1B78FB74264B1B78BB74254B1B78D4
:4023C0007B74182001F038FC10237B6125E01E4B1B780423FB730EE000BF012001F0E2FA034603F00103DBB2002BF6D0FB7BDBB2013BDBB2FB73FB7BDBB2002BECD1124B11
:402400001B78DBB25BB2002B02DB00237B6108E03B7CDBB2013BDBB23B743B7CDBB2002BD5D1FB7C03F00403002B01D1FFF766FE074ABB7C1370074A7B7C13707B691846CF
:402440001837BD4680BD00BF1042004000430040804300408243004080B400AF054A054B1B78DBB223F00103DBB2137000BFBD4680BC70471042004080B400AF054A054B5F
:402480001B78DBB223F00403DBB2137000BFBD4680BC70471042004080B400AF054A054B1B78DBB243F00403DBB2137000BFBD4680BC70471042004080B400AF064B1B7891
:4024C000DBB25BB2002B01DA012300E000231846BD4680BC704700BF1042004080B400AF054A054B1B78DBB243F04003DBB2137000BFBD4680BC70471042004080B400AF1E
:40250000054A054B1B78DBB223F04003DBB2137000BFBD4680BC70471042004080B483B000AF0346FB710949084B1B78DBB223F01F03DAB2FB7903F01F03DBB21343DBB2E5
:402540000B7000BF0C37BD4680BC70471242004080B483B000AF0346FB710949084B1B78DBB223F00F03DAB2FB7903F00F03DBB21343DBB20B7000BF0C37BD4680BC7047B7
:402580001342004080B483B000AF0346FB710A49094B1B78DBB223F07003DAB2FB791B01DBB203F07003DBB21343DBB20B7000BF0C37BD4680BC70471342004080B483B080
:4025C00000AF0346FB7101BE00BF0C37BD4680BC704700BF80B400AF054A054B1B78DBB243F00103DBB2137000BFBD4680BC7047F646004080B582B000AF786008E00C4BBA
:402600001B68184601F0CCFF7B68A3F500437B607B68B3F5004FF2D8064B1B687A6802FB03F3184601F0BCFF00BF0837BD4680BDE080FF1FD880FF1F80B582B000AF03467C
:40264000FB80FB88054A127802FB03F3184601F0A7FF00BF0837BD4680BD00BFDC80FF1F80B483B000AF78607B68002B03D0144A7B68136002E0124B124A1A60104B1B68AE
:4026800003F5742303F23F230F4AA2FB03239B0CDAB20E4B1A700A4B1B6803F2E7330C4AA2FB03239B090B4A13600A4B1B68DB03094A136000BF0C37BD4680BC704700BF63
:4026C000D480FF1F00366E0183DE1B43DC80FF1FD34D6210D880FF1FE080FF1F80B483B000AF03460A46FB711346BB711D491D4B1B78DBB223F00303DAB2FB7903F0030364
:40270000DBB21343DBB20B70164A164B1B78DBB263F07F03DBB21370124A124B1B78DBB203F07F03DBB213700E49BB795B01DBB203F06003DAB20B4B1B78DBB223F0600348
:40274000DBB21343DBB20B70064A064B1B78DBB243F01003DBB2137000BF0C37BD4680BC704700BF8343004080B400AF034B01221A7000BFBD4680BC704700BF8443004041
:4027800080B584B000AF03460A46FB711346BB7101F00EFF0346FB73264B1B6803F00103BB60254B01221A60244A244B1B78DBB223F04003DBB213702149BB7903F00F03A9
:4027C000DAB21F4B1B78DBB223F00F03DBB21343DBB20B701B4A1B4B1B78DBB243F00103DBB213700120FFF727FF012000F030F9FB79002B08D0114A104B1B78DBB243F08A
:402800004003DBB2137007E00C4A0C4B1B78DBB223F04003DBB213700B4B01221A60054ABB681360FB7B184601F0C6FE00BF1037BD4680BD00E100E080E100E0F746004005
:40284000F4460040F546004080E200E080B584B000AF03460A46FB711346BB7101F0A8FE0346FB73264B1B6803F00103BB60254B01221A60244A244B1B78DBB203F07F03AC
:40288000DBB213702149BB791B01DAB21F4B1B78DBB203F00F03DBB21343DBB20B701C4A1B4B1B78DBB243F00203DBB213700120FFF7C2FE022000F0CBF8FB79002B08D0F1
:4028C000114A114B1B78DBB263F07F03DBB2137007E00D4A0C4B1B78DBB203F07F03DBB213700C4B01221A60054ABB681360FB7B184601F061FE00BF1037BD4680BD00BFE0
:4029000000E100E080E100E0F7460040F4460040F546004080E200E080B500AF0E4A0E4B1B78DBB223F00103DBB213700B4A0B4B1B78DBB223F04003DBB21370012000F0C3
:4029400087F800BF012000F083F8034603F00103002BF7D100BF80BDF5460040F746004080B500AF0D4A0D4B1B78DBB223F00203DBB213700A4A0A4B1B78DBB203F07F034D
:40298000DBB2137000BF022000F062F8034603F00203002BF7D100BF80BD00BFF5460040F746004080B582B000AF01F001FE0346FB71164B1B6803F001033B60144B012242
:4029C0001A60144A134B1B78DBB203F07F03DBB21370114A104B1B78DBB243F00403DBB213700120FFF728FE042000F031F80B4B01221A60054A3B681360FB79184601F047
:402A0000DBFD00BF0837BD4680BD00BF00E100E080E100E0F7460040F546004080E200E080B500AF094A094B1B78DBB223F00403DBB2137000BF042000F00AF8034603F09F
:402A40000403002BF7D100BF80BD00BFF546004080B584B000AF0346FB7101F0A9FD0346FB73104B1B78DAB20F4B1B781343DAB20D4B1A700C4B1B7803F00703BB73FB7957
:402A8000DB43DAB2084B1B781340DAB2064B1A70FB7B184601F090FDBB7B18461037BD4680BD00BFFA4600408C81FF1F80B582B000AF01F07DFD0346FB71074B1B78DBB24D
:402AC00003F00703BB71FB79184601F075FDBB7918460837BD4680BDFC46004080B582B000AF01F065FD0346FB71084B1B683B60064B4FF0FF321A60FB79184601F05CFDFF
:402B00003B6818460837BD4680BD00BF80E100E080B584B000AF786001F04AFD0346FB73054A7B681360FB7B184601F045FD00BF1037BD4680BD00BF00E100E080B582B05D
:402B400000AF01F035FD0346FB7100BF00BF00BF00BF00BF00BF00BF00BF00BF00BF00BF00BF00BF00BF00BF00BF0A4A094B1B889BB243F004039BB21380064B1B88BFF386
:402B80006F8FFB79184601F017FD00BF0837BD4680BD00BF0048004080B584B000AF03463960FB710E4B1B68FB60FB790F2B02D90020FFF703FDFB7903F00F039B00FA6809
:402BC00013441B68BB60FB7903F00F039B00FA6813443A681A60BB6818461037BD4680BD08ED00E080B584B000AF0346FB710A4B1B68FB60FB790F2B02D90020FFF7DEFCA1
:402C0000FB7903F00F039B00FA6813441B6818461037BD4680BD00BF08ED00E080B584B000AF03463960FB710F4B1B68FB60FB791F2B02D90020FFF7C1FCFB7903F01F0338
:402C400010339B00FA6813441B68BB60FB7903F01F0310339B00FA6813443A681A60BB6818461037BD4680BD08ED00E080B584B000AF0346FB710A4B1B68FB60FB791F2B48
:402C800002D90020FFF79AFCFB7903F01F0310339B00FA6813441B6818461037BD4680BD08ED00E080B582B000AF03460A46FB711346BB71BB79072B02D90020FFF77EFCBF
:402CC000FB791F2B02D90020FFF778FCFB7903F01F0303F1604303F56443BA795201D2B21A7000BF0837BD4680BD00BF80B584B000AF0346FB71FB791F2B02D90020FFF7E5
:402D00005DFCFB7903F01F0303F1604303F564431B78DBB25B09FB73FB7B18461037BD4680BD00BF80B584B000AF0346FB71FB791F2B02D90020FFF741FC0A4BFB60FB68A3
:402D40001A68FB7903F01F0322FA03F303F00103002B14BF01230023DBB218461037BD4680BD00BF00E100E080B500AF064B1B68002B04D100F00AF8034B01221A6000F083
:402D80003BF800BF80BD00BF8881FF1F80B582B000AF00237B6007E0124A7B68002142F823107B6801337B607B68042BF4D90E490F20FFF7F1FE012000F07EF80B4B1B689A
:402DC0000B4AA2FB03239B09184600F04DF800F0ABF8084B4FF400421A6000BF0837BD4680BD00BF7481FF1F912F0000D480FF1FD34D621000E100E080B500AF00F018F826
:402E0000034A034B1B6843F00103136000BF80BD10E000E080B400AF044A044B1B6823F00103136000BFBD4680BC704710E000E080B400AF044A044B1B6843F0020313603E
:402E400000BFBD4680BC704710E000E080B400AF044A044B1B6823F00203136000BFBD4680BC704710E000E080B483B000AF7860044A7B6823F07F43136000BF0C37BD464E
:402E800080BC704714E000E080B400AF034B1B6823F07F431846BD4680BC704714E000E080B400AF034B1B6823F07F431846BD4680BC704718E000E080B483B000AF7860F7
:402EC0007B68012B06D1094A084B1B6843F00403136005E0054A054B1B6823F00403136000BF0C37BD4680BC704700BF10E000E080B400AF044B1B689B0803F0010318464E
:402F0000BD4680BC704700BF10E000E080B400AF044B1B681B0C03F001031846BD4680BC704700BF10E000E080B400AF034B00221A6000BFBD4680BC704700BF18E000E03D
:402F400080B485B000AF78603960084A7B6852F82330FB6005497B683A6841F82320FB6818461437BD4680BC704700BF7481FF1F80B483B000AF7860044A7B6852F82330BC
:402F800018460C37BD4680BC704700BF7481FF1F80B582B000AFFFF7B9FF0346012B13D100237B600DE00A4A7B6852F82330002B04D0074A7B6852F8233098477B68013306
:402FC0007B607B68042BEED900BF0837BD4680BD7481FF1F80B483B000AF7860264B1B78DBB21A467B681A60244B1B78DBB21B027A6812681A437B681A60214B1B78DBB242
:403000001B047A6812681A437B681A601D4B1B78DBB21B067A6812681A437B681A607B680433194A1278D2B21A60184B1B78DBB21A027B6804337968043109680A431A6090
:40304000134B1B78DBB21A047B6804337968043109680A431A600F4B1B78DBB21A067B6804337968043109680A431A6000BF0C37BD4680BC704700BF0301004904010049F8
:40308000EC460040020100490101004900010049050100490601004980B500AF924B1B78DBB203F00F03DAB2904B1A70904B1B78DAB28E4B5A708C4A8B4B1B78DBB223F0CB
:4030C0000F03DBB213708A4B1B78894B00221A70884B1B78DBB223F03F03DAB2834B5A71372001F04FFC844B1B78DBB203F00703DAB27E4BDA70804B1B78DBB203F040031A
:40310000DAB27A4B1A717C4B1B78DBB203F01003002B03D0754B01225A7202E0734B00225A72764B1B78DBB203F00303DAB26F4B9A706E4B9B78012B1CD14FF040231B7847
:40314000DBB203F00303012B08D0012B02D3022B08D00BE00020FEF7C7FE0BE00220FEF7C3FE07E00320FEF7BFFE03E00020FFF725FA00BF624B1B78DBB203F00103002BB5
:4031800005D05A4B01229A73FEF7D2FB02E0574B00229A730420FEF769FD5A4B1B78DBB203F01003DBB2002B03D0504B01229A7108E04E4B00229A710020FEF73FFC06202E
:4031C000FFF73AFA4C4B1B78DBB203F02003002B10D04FF040231B78DBB203F04003002B01D1022200E00122404BDA710020FEF715FE02E03D4B0022DA714FF040231B78A7
:40320000DBB203F03003DAB2384B1A72374B1B7A002B09D04FF040224FF040231B78DBB223F03003DBB21370334B1B78DBB203F01003002B01D0FEF747FE334B1B78DAB2F5
:403240002A4B9A72294B9B7A002B02D00020FEF765FE264B9B78002B02D00020FEF744FE2A4B1B78DBB29BB21B029AB21F4B9A81274B1B78D9B21D4B9A898BB213439AB22D
:403280001A4B9A81194B9B89002B02D00020FEF791FE194B1B78DBB203F007031D4AD35C184601F06FFB1C4B1B78DBB203F00103002B05D00D4B0122DA73FFF7CDF802E0B2
:4032C0000A4B0022DA73154B1B78DBB203F00403002B03D0054B01221A7402E0034B00221A7400BF80BD00BFA1430040C081FF1FA2430040004800400042004005400040BF
:4033000020420040A043004004400040074000400640004020530000104200400B40004080B586B000AF10233B61AB4A3B1D106818609188927999809A71A84B1B7C012B83
:4033400017D1A74B1B78DBB203F00703A54AD35C1A4613469B0013441A01D31A184601F01FF9A14AA04B1B78DBB243F00403DBB213709A4BDB7B012B24D10020FFF704F870
:403380009A4B1B780523FB8219E0954B1B78DBB203F00703934AD35C1A46C82303FB02F3184601F0FDF8914B1B78DBB25BB2002B02DB00233B6105E0FB8A013BFB82FB8AF4
:4033C000002BE2D1372001F0DDFA844B9B78022B03D0824B9B78032B10D1854B1B78DAB27E4B9B7A9A4204D07C4B9B7A1846FEF795FD7A4B9B781846FEF776FD774B1B79CD
:4034000003F04003002B0CD0744BDB7807F11802134413F8143C032B03D10820FEF726FC20E06E4BDB7807F11802134413F8143C1846FEF71BFC694B1B7903F04003002B55
:4034400008D0674A664B1B78DBB243F04003DBB2137007E0624A624B1B78DBB223F04003DBB213705D4B9B79012B0AD1614B1B78DBB203F01003DBB2002B02D10020FEF771
:40348000DDFA564BDB791846FEF7C8FC534B5B7A012B01D1FEF708FD504B1B7A1A464FF040231B78DBB203F030039A4210D04FF040214FF040231B78DBB25BB223F03003D5
:4034C0005AB2464B1B7A5BB213435BB2DBB20B70424B9B7B012B26D110233B610020FEF7CFF95020FFF7A8F8434B1B78AB23FB8216E00120FFF7A0F83F4B1B78DBB203F0FC
:403500000103002B09D03C4B1B78DBB203F00103002B02D000233B6105E0FB8A013BFB82FB8A002BE5D12D4B9B78002B03D02B4B9B78012B10D12E4B1B78DAB2274B9B7A62
:403540009A4204D0254B9B7A1846FEF7E7FC234B9B781846FEF7C8FC204B9B79002B09D1244B1B78DBB203F01003DBB2002B01D0FEF7AEFA214B1B78DBB29BB21B02FB8197
:403580001F4B1B78DBB29AB2FB891343FB81134B9B89FA899A4204D0104B9B891846FEF709FD1849174B1B78DBB25BB203F03F035AB20A4B5B795BB213435BB2DBB20B7080
:4035C000114B064A12781A70104B044A52781A7000BF1837BD4680BD28530000C081FF1F00420040205300000B4000401042004004400040A04300402542004007400040FF
:403600000640004000480040A1430040A243004080B582B000AF03460A46FB801346BB80FB88002B02D00020FEF7C8FF224B1B78DAB2224B1A71204ABB881B099BB2DBB2EA
:4036400013701F4B1B78DAB21C4B5A711C4ABB88DBB203F00F03DBB213701A4B1B78DAB2164B9A71174ABB881B0B9BB2DBB203F00103DBB21370144A134B1B78DBB223F037
:403680000703DBB243F00103DBB213700E4B1B7800BF00BF30BF084B084A12791A70084B064A52791A70074B044A92791A7000BF0837BD4680BD00BF984300409081FF1FA5
:4036C000994300409A4300409343004080B584B000AF03460A46FB711346BB8000F068FF0346FB734E4B1B78DBB203F00803002B0BD14C4A4B4B1B78DBB203F01F03DBB210
:403700001370FB79002B08D004E0FB7B184600F053FF81E00020FEF751FF00F0D7FA424B1B78DAB2414B1A713F4ABB881B099BB2DBB213703E4B1B78DAB23C4B5A713C4A7E
:40374000BB88DBB203F00F03DBB21370394B1B78DAB2364B9A71374ABB881B0B9BB2DBB203F00103DBB21370334B1B78DBB203F00703002B04D12D4B012283F82E2014E077
:403780002A4B002283F82E202B4B1B78DBB203F00703DAB2254B83F82D20274A264B1B78DBB223F00703DBB213701D4A1C4B1B78DBB223F00703DBB243F00303DBB2137042
:4037C000174B1B7800BF00BF30BF184B93F82E30012B0FD01849184B1B78DBB25BB223F007035AB2114B93F82D305BB213435BB2DBB20B7000F0AAFB0B4B0C4A12791A70E4
:403800000B4B0A4A52791A700A4B084A92791A70FB7B184600F0D0FE1037BD4680BD00BF9343004083460040984300409081FF1F994300409A4300400042004080B500AF6D
:40384000402000F003F800BF80BD00BF80B584B000AF0346FB8000F0ABFE0346FB734A4B1B78DBB203F00803002B33D1474A474B1B78DBB203F01F03DBB2137000F0C0F824
:40388000434B1B78DAB2434B1A71414AFB881B099BB2DBB203F00403DBB213703E4B1B78DAB23C4B5A713C4AFB88DBB203F00F03DBB21370394B1B78DAB2364B9A71374BD6
:4038C00000221A70364B1B78DBB203F00703002B0AD104E0FB7B184600F06EFE50E02D4B012283F82E2014E02A4B002283F82E202B4B1B78DBB203F00703DAB2254B83F872
:403900002D20274A264B1B78DBB223F00703DBB213701D4A1C4B1B78DBB223F00703DBB243F00403DBB21370174B1B7800BF00BF30BF184B93F82E30012B0FD01849184BAC
:403940001B78DBB25BB223F007035AB2114B93F82D305BB213435BB2DBB20B7000F0C4F80B4B0C4A12791A700B4B0A4A52791A700A4B084A92791A70FB7B184600F01CFEAF
:403980001037BD4680BD00BF9343004083460040984300409081FF1F994300409A4300400042004080B584B000AF0346FB7100F0FFFD0346FB73104B1B78DAB20F4B1B78C6
:4039C0001343DAB20D4B1A700C4B1B7803F00703BB73FB79DB43DAB2084B1B781340DAB2064B1A70FB7B184600F0E6FDBB7B18461037BD4680BD00BF90430040D281FF1F2B
:403A000080B500AF314B1B78DBB203F00403002B07D02E4A2D4B1B78DBB223F00403DBB213700120FEF7B6FB03461A46284B1A70284B1B78DBB203F00203002B14BF0123B6
:403A40000023DBB21A46224B5A70224B1B78DBB203F00403002B14BF01230023DBB21A461B4B9A701C4B1B78DBB203F01003002B0BD1174B0022DA70174A174B1B78DBB291
:403A800043F01003DBB2137002E0114B0122DA7000F022FB00F01AF9104B1B78DAB20C4BDA710F4B1B78DAB2094B1A720D4B1B78DAB2074B5A72094BFF221A70084BB022C7
:403AC0001A70084BFF221A7000BF80BD314300409081FF1F004300408346004085460040864600408A46004080B500AF00F060FB00F02CFA154B5B78012B01D1FEF7CEFA79
:403B0000124B9B78012B01D1FEF7E8FA0F4B1B781846FEF73FFB0D4BDB78002B07D10C4A0B4B1B78DBB223F01003DBB21370094B064AD2791A70084B044A127A1A70074B94
:403B4000024A527A1A7000BF80BD00BF9081FF1F8346004085460040864600408A46004080B582B000AF0346FB71204A1F4B1B78DBB223F00803DBB21370FEF78FFA1B4BB8
:403B80001B78DBB203F00403002B19D0184B1B78DBB2FA799A4224D0144A144B1B78DBB223F00403DBB21370114AFB7913700F4A0E4B1B78DBB243F00403DBB2137010E0AC
:403BC0000B4B1B78DBB2FA799A4202D0084AFB791370064A054B1B78DBB243F00403DBB2137000BF0837BD4680BD00BF824300408143004080B500AF0D4B1B78DBB203F086
:403C00000103002B01D1FEF7EBFA0A4A094B1B78DBB223F02003DBB21370064A054B1B78DBB243F01003DBB2137000BF80BD00BF084300408243004080B582B000AF0346DB
:403C4000FB71204A1F4B1B78DBB223F00203DBB21370FEF743FA1B4B1B78DBB203F00103002B19D0184B1B78DBB2FA799A4224D0144A144B1B78DBB223F00103DBB213702F
:403C8000114AFB7913700F4A0E4B1B78DBB243F00103DBB2137010E00B4B1B78DBB2FA799A4202D0084AFB791370064A054B1B78DBB243F00103DBB2137000BF0837BD46C1
:403CC00080BD00BF824300408043004080B400AF804B1B78DAB2804B9A72804B1B78DAB27D4BDA727E4B1B78DAB27B4B1A737D4B1B78DAB2784B5A737B4B1B78DAB2764BC6
:403D00009A737A4B1B78DAB2734BDA73784B1B78DAB2714B1A74774B1B78DAB26E4B5A74754B1B78DAB26C4B9A74744B1B78DAB2694BDA74724B1B78DAB2674B1A75714B96
:403D40001B78DAB2644B5A756F4B1B78DAB2624B9A756E4B1B78DAB25F4BDA756C4B1B78DAB25D4B1A766B4B1B78DAB25A4B5A76694B1B78DAB2584B9A76684B1B78DAB290
:403D8000554BDA76664B1B78DAB2534B1A77654B1B78DAB2504B5A77634B1B78DAB24E4B9A77624B1B78DAB24B4BDA77604B1B78DAB2494B83F820205E4B1B78DAB2464B3D
:403DC00083F821205C4B1B78DAB2434B83F822205A4B1B78DAB2404B83F82320584B1B78DAB23D4B83F82420564B1B78DAB23A4B83F82520374B00221A70384B00221A707E
:403E0000374B00221A70374B00221A70364B00221A70364B00221A70354B00221A70354B00221A70344B00221A70344B00221A70334B00221A70334B00221A70324B00222B
:403E40001A70324B00221A70314B00221A70314B00221A70304B00221A70304B00221A702F4B00221A702F4B00221A702E4B00221A702E4B00221A702D4B00221A702D4BBF
:403E800000221A702C4B00221A702C4B00221A702B4B00221A702B4B00221A702A4B1B78DBB203F00803002B0CD00B4B012283F82F20254A244B1B78DBB223F00803DBB246
:403EC000137003E0044B002283F82F2000BFBD4680BC7047005A00409081FF1F025A0040035A0040045A0040065A0040085A00400A5A0040105A0040125A0040135A0040E3
:403F0000145A0040165A0040185A00401A5A0040205A0040225A0040235A0040245A0040265A0040285A00402A5A0040305A0040325A0040335A0040345A0040365A004085
:403F4000385A00403A5A00402243004080B400AF434B444A927A1A70434B424AD27A1A70424B404A127B1A70414B3E4A527B1A70404B3C4A927B1A703F4B3A4AD27B1A704B
:403F80003E4B384A127C1A703D4B364A527C1A703C4B344A927C1A703B4B324AD27C1A703A4B304A127D1A70394B2E4A527D1A70384B2C4A927D1A70374B2A4AD27D1A7039
:403FC000364B284A127E1A70354B264A527E1A70344B244A927E1A70334B224AD27E1A70324B204A127F1A70314B1E4A527F1A70304B1C4A927F1A702F4B1A4AD27F1A70A9
:404000002E4B184A92F820201A702D4B154A92F821201A702B4B134A92F822201A702A4B104A92F823201A70284B0E4A92F824201A70274B0B4A92F825201A70094B93F8B4
:404040002F30012B07D1234A224B1B78DBB243F00803DBB2137000BFBD4680BC704700BF005A00409081FF1F025A0040035A0040045A0040065A0040085A00400A5A00409B
:40408000105A0040125A0040135A0040145A0040165A0040185A00401A5A0040205A0040225A0040235A0040245A0040265A0040285A00402A5A0040305A0040325A00406C
:4040C000335A0040345A0040365A0040385A00403A5A00402243004080B500AF304B1B78DBB203F00103002B1DD02E4B012283F826202D4B1B78DBB203F00F03DAB2294B82
:4041000083F82720294B1B78DBB203F04003002B14BF01230023DBB21A46224B83F82B20FEF7FAFB03E01F4B002283F826201C4B1B78DBB203F00203002B19D0194B01225A
:4041400083F82820184B1B78DBB21B09DAB2154B83F82920154B1B78DBB25BB2DBB2DB09DBB21A460F4B83F82C20FEF7F9FB03E00C4B002283F82820094B1B78DBB203F0AA
:404180000403002B06D0074B012283F82A20FEF747FC03E0034B002283F82A2000BF80BDF54600409081FF1FF4460040F746004080B500AF134B93F82630012B09D1114B4B
:4041C00093F82B200F4B93F8273019461046FEF7D7FA0C4B93F82830012B09D1094B93F82C20084B93F8293019461046FEF72EFB044B93F82A30012B01D1FEF7D3FB00BF09
:4042000080BD00BF9081FF1F80B485B000AF0346FB710B4B1B78DBB223F00203FB730849FB795B00DBB203F00203DAB2FB7B1343DBB20B7000BF1437BD4680BC704700BFC6
:404240003051004080B483B000AF0346FB710B490A4B1B78DBB25BB223F00E035AB297F9073003F00E035BB213435BB2DBB20B7000BF0C37BD4680BC704700BF1950004009
:4042800080B400AF054B1B78DBB203F002035B08DBB21846BD4680BC704700BF3151004080B400AF054B1B78DBB203F002035B08DBB21846BD4680BC704700BF30510040DF
:4042C00080B485B000AF0346FB710B4B1B78DBB223F00403FB730849FB799B00DBB203F00403DAB2FB7B1343DBB20B7000BF1437BD4680BC704700BF3051004080B483B0C5
:4043000000AF0346FB710B490A4B1B78DBB25BB223F00E035AB297F9073003F00E035BB213435BB2DBB20B7000BF0C37BD4680BC704700BF1A50004080B400AF054B1B78A9
:40434000DBB203F004039B08DBB21846BD4680BC704700BF3151004080B400AF054B1B78DBB203F004039B08DBB21846BD4680BC704700BF3051004080B485B000AF0346FF
:40438000FB710B4B1B78DBB223F02003FB730849FB795B01DBB203F02003DAB2FB7B1343DBB20B7000BF1437BD4680BC704700BF3051004080B483B000AF0346FB710B49B4
:4043C0000A4B1B78DBB25BB223F00E035AB297F9073003F00E035BB213435BB2DBB20B7000BF0C37BD4680BC704700BF1D50004080B400AF054B1B78DBB203F020035B0997
:40440000DBB21846BD4680BC704700BF3151004080B400AF054B1B78DBB203F020035B09DBB21846BD4680BC704700BF3051004080B485B000AF0346FB710B4B1B78DBB2A9
:4044400023F01003FB730849FB791B01DBB203F01003DAB2FB7B1343DBB20B7000BF1437BD4680BC704700BF3051004080B483B000AF0346FB710B490A4B1B78DBB25BB2B3
:4044800023F00E035AB297F9073003F00E035BB213435BB2DBB20B7000BF0C37BD4680BC704700BF1C50004080B400AF054B1B78DBB203F010031B09DBB21846BD4680BC7F
:4044C000704700BF3151004080B400AF054B1B78DBB203F010031B09DBB21846BD4680BC704700BF3051004080B485B000AF0346FB710B4B1B78DBB223F00803FB73084986
:40450000FB79DB00DBB203F00803DAB2FB7B1343DBB20B7000BF1437BD4680BC704700BF3051004080B483B000AF0346FB710B490A4B1B78DBB25BB223F00E035AB297F960
:40454000073003F00E035BB213435BB2DBB20B7000BF0C37BD4680BC704700BF1B50004080B400AF054B1B78DBB203F00803DB08DBB21846BD4680BC704700BF3151004090
:4045800080B400AF054B1B78DBB203F00803DB08DBB21846BD4680BC704700BF305100400230800803D000BF01380046FCD17047EFF3108072B6704780F31088704700BF45
:4045C00080B582B000AFFFF7F3FF0346FB71194A184B1B78DBB243F00803DBB21370164A154B1B78DBB243F00803DBB21370134BC8221A70124A124B1B78DBB243F00F03B6
:40460000DBB213700F4A0F4B1B78DBB243F00F03DBB2137000BF0C4B1B78DBB203F02003002BF8D0FB791846FFF7C6FF00BF0837BD4680BDA0430040B0430040014700405A
:40464000AC430040BC4300400047004080B582B000AFFFF7ADFF0346FB710C4A0B4B1B78DBB223F00F03DBB21370094A084B1B78DBB223F00F03DBB21370FB791846FFF714
:404680009BFF00BF0837BD4680BD00BFAC430040BC43004080B582B000AF00F063FA4FF0FF337B6000F098FC0346002B24D1012000F060FC0346072B1BD10221124800F018
:4046C00099FA0346022B0DD100237B6002E00120FDF7B2FF0D4B1B78DBB203F00203002BF5D006E0094B1B78DBB203F00203002BE3D000F0A5FC01E004237B607B681846E8
:404700000837BD4680BD00BFE081FF1F2247004080B582B000AF00F025FA00F05DFC0346002B23D100F0B4FC78607B68072B1AD102E00120FDF780FF104B1B78DBB203F0E1
:404740000203002BF5D00D4B1B78DBB203F00203002B08D0094B1B78DBB29B08DBB2002B01D100237B6000F06BFC01E004237B607B6818460837BD4680BD00BF22470040D0
:4047800080B582B000AFFFF7C3FF78607B68002B02D1FFF77FFF78607B6818460837BD4680BD00BF80B584B000AF78600023FB6000F0D8F97B68002B06D10E4B1B680D4A60
:4047C00013600123FB6010E000F006FC0346002B06D0084B1B68074A13600423FB6004E0044A7B68136000F02BFCFB6818461037BD4680BDD481FF1F80B584B000AF0346C4
:404800003A60FB710B46BB80FB793F2B01D9102301E04FF48073FB81FB89B988F8793A6800F006F8B860BB6818461037BD4680BD80B586B000AFBA601A460346FB730B46E6
:40484000BB811346FB8000237B61FB7B3F2B04D8FB7B042B01D901237B6197F90F30002B01DA01237B61FB7B3F2B04D9FB7B412B01D901237B61FB7B3F2B06D8BB89B3F5F6
:40488000807F0CD901237B6109E0BB89802B01D901237B61FB88102B01D001237B61BB68002B01D101237B617B69002B60D100F093FB0346002B59D1FB88B989F87BBA68FD
:4048C00000F06EFA78617B69072B4CD102E00120FDF7B2FE294B1B78DBB203F00203002BF5D0264B1B78DBB203F00203002B09D0224B1B78DBB29B08DBB2002B02D10023C6
:404900007B6102E04FF0FF337B617B69002B2AD11B4B1A781A4B5B78B989F87B00F0A6FA78617B69072B1ED102E00120FDF784FE124B1B78DBB203F00203002BF5D00F4BD7
:404940001B78DBB203F00203002B09D00B4B1B78DBB29B08DBB2002B02D100237B6102E04FF0FF337B6100F06BFB01E004237B617B6918461837BD4680BD00BF22470040D6
:40498000E081FF1F80B584B000AF0346FB71FFF70FFE0346FB73FB790F2B0BD8274A274B1B78DBB203F01F03DBB243F04003DBB213703BE0FB79202B0BD8204A1F4B1B7811
:4049C000DBB203F01F03DBB263F07F03DBB213702CE0FB79312B0BD8184A184B1B78DBB203F01F03DBB263F03F03DBB213701DE0FB79422B08D8114A104B1B78DBB203F031
:404A00001F03DBB2137011E0FB79532B0BD80B4A0A4B1B78DBB203F01F03DBB243F02003DBB2137002E00020FDF7C8FDFB7B1846FFF7C2FD00BF1037BD4680BD004800409A
:404A400080B582B000AFFFF7B3FD0346FB71194A184B1B78DBB243F00803DBB21370164A154B1B78DBB243F00803DBB21370134BC8221A70124A124B1B78DBB243F0100372
:404A8000DBB213700F4A0F4B1B78DBB243F01003DBB2137000BF0C4B1B78DBB203F02003002BF8D0FB791846FFF786FD00BF0837BD4680BDA0430040B04300400147004017
:404AC000AC430040BC4300400047004080B582B000AFFFF76DFD0346FB710C4A0B4B1B78DBB223F01003DBB21370094A084B1B78DBB223F01003DBB21370FB791846FFF7D0
:404B00005BFD00BF0837BD4680BD00BFAC430040BC43004080B400AF094A094B1B78DBB243F00103DBB2137000BF054B1B78DBB203F00203002BF8D000BFBD4680BC7047F2
:404B40000247004080B400AF054A054B1B78DBB223F00103DBB2137000BFBD4680BC70470247004080B582B000AFFFF721FD0346FB710C4A0B4B1B78DBB243F00803DBB22F
:404B80001370094A084B1B78DBB243F00803DBB21370FB791846FFF70FFD00BF0837BD4680BD00BFA0430040B043004080B582B000AFFFF7FDFC0346FB710C4A0B4B1B783E
:404BC000DBB223F00803DBB21370094A084B1B78DBB223F00803DBB21370FB791846FFF7EBFC00BF0837BD4680BD00BFA0430040B043004080B584B000AF78600B46FB7058
:404C00000023FB7313E00120FDF716FD0C4B1B78DBB203F00103002BF5D0FB7B7A681344084A1278D2B21A70FB7B0133FB73FA7BFB789A42EAD3FB7B18461037BD4680BDDD
:404C4000224700402047004080B485B000AF3A601A460346FB710B46BB801346BB710723FB60FB793E2B02D8BB791F2B05D9FB793F2B45D9BB790F2B42D8254B1B78DBB260
:404C800003F00203002B38D0224BB6221A70214BD4221A701F4B01221A701D4B1B78DBB203F00203002B25D11A4AFB791370194ABB881B0A9BB2DBB203F00103DBB213704F
:404CC000144BBA88D2B21A70124ABB79013BDBB213700023FB7208E00E49FB7A3A6813441B780B70FB7A0133FB72FA7ABB799A42F2D307E00923FB6004E00423FB6001E0CA
:404D00000123FB60FB6818461437BD4680BC7047224700402047004080B485B000AF03463960FB711346BB800723FB601A4B1B78DBB203F00203002B26D0184BB6221A70C0
:404D4000164BD5221A70154B02221A70124B1B78DBB203F00203002B13D1104AFB79137000237B8108E00D497B893A6813441B780B707B8901337B817A89BB889A42F2D3EB
:404D800004E00923FB6001E00423FB60FB6818461437BD4680BC7047224700402047004080B489B000AFBA601A460346FB730B46BB811346FB800723FB612A4B1B78DBB20A
:404DC00003F00203002B45D0274BB6221A70264BD5221A70244B02221A70224B1B78DBB203F00203002B32D11F4AFB7B137000237B8308E01C497B8BBA6813441B780B7088
:404E00007B8B01337B837A8BFB889A42F2D3FB88B3F5807F20D1FB7B3F2B1DD8FB7B03F510331A02BB8913445B017B6100237B8309E00D497A8B7B6913441B78DBB20B7046
:404E40007B8B01337B837B8B1F2BF2D904E00923FB6101E00423FB61FB6918462437BD4680BC7047224700402047004090B484B000AF0446084611461A462346FB71034618
:404E8000BB800B46BB711346FB700723FB601B4B1B78DBB203F00203002B26D0184BB6221A70174BD8221A70154B05221A70134B1B78DBB203F00203002B13D1104AFB7943
:404EC00013700F4ABB881B0A9BB2DBB213700C4BBA88D2B21A700A4ABB791370084AFB78137004E00923FB6001E00423FB60FB6818461037BD4690BC704700BF22470040D3
:404F00002047004080B485B000AF03460A46FB711346BB710723FB60144B1B78DBB203F00203002B19D0124BB6221A70104BDB221A700F4B08221A700C4B1B78DBB203F0FF
:404F40000203002B06D10A4AFB791370084ABB79137004E00923FB6001E00423FB60FB6818461437BD4680BC704700BF224700402047004080B485B000AF0346FB71072300
:404F8000FB60134B1B78DBB203F00203002B16D0104BB6221A700F4BE1221A700D4B0E221A700B4B1B78DBB203F00203002B03D1084AFB79137004E00923FB6001E0042330
:404FC000FB60FB6818461437BD4680BC704700BF224700402047004080B582B000AF04237B60FFF7E5FA0346FB70124B1B78002B16D1104B01221A7000237B600E4B1B68C0
:4050000003F00103002B0BD00B4A0B4B1B6823F00103136000BF00BF00BF084B01221A60FB781846FFF7C8FA7B6818460837BD4680BD00BFD881FF1F04000840DC81FF1F48
:4050400080B582B000AFFFF7B3FA0346FB710D4B00221A700C4B1B68012B0BD10B4A0B4B1B6843F00103136000BF00BF00BF064B00221A60FB791846FFF79EFA00BF08377C
:40508000BD4680BDD881FF1FDC81FF1F0400084080B483B000AF07237B600C4B1B78DBB203F00203002B09D0094BB6221A70084BE0221A70064B0D221A7001E004237B6062
:4050C0007B6818460C37BD4680BC70472247004020470040014B1868704700BF4481FF1F08B5074B044613B10021AFF30080054B1868836A03B198472046FBF74BFC00BFB3
:4051000000000000345300000E4B70B51E460E4C0025E41AA410A54204D056F8253098470135F8E700F008F9084B094C1E46E41AA4100025A54204D056F82530984701353C
:40514000F8E770BD4453000044530000445300004C53000010B5431E0A44914204D011F8014B03F8014FF8E710BD03460244934202D003F8011BFAE7704700000000000073
:4051800004AFFF7F01000000005100401000205100401000405100403000C0510040100000000140001000140140000800400140000A004C01400002005001402000000080
:4051C00000000000000004000000E01901000000000000000000000002000000000000000000000003000000000000000000000004000000000000000000000005000000A3
:4052000000000000000000000600000000000000000000000700000000000000000000000000000028000000F9FF1F000000007D01000000000000000000000000000000A4
:405240000200000000000000000000000000000003000000000000000000000000000000040000000000000000000000000000000500000000000000000000000000000020
:4052800006000000000000000000000000000000070000000000000000000000000000000800000000000000000000000000000009000000000000000000000000000000D0
:4052C0000A0000000000000000000000000000000B0000000000000000000000000000000C0000000000000000000000000000000D00000000000000000000000000000080
:405300000E0000000000000000000000000000000F0000000000000000000000000000000C061803303E4A00020103000405064300000000E480FF1FF8B500BFF8BC08BCAD
:405340009E4670474D000000910A0000F8B500BFF8BC08BC9E4670472900000070530000C880FF1F80000000A0000000000000000000000000000000E881FF1F00366E018D
:40538000C05D0000180000000000E02E00000000000000000000000000000000000000000000000000000000000000002F5300000000000000000000000000000000000028
:4053C0000000000000000000000000000000000000000000000000000000000000000000000000000000000000000000E480FF1F000000000000000000000000000000002B
:40540000000000000000000000000000000000000000000000000000000000000000000000000000000000000000000000000000000000000000000000000000000000006C
:40544000000000000000000000000000000000000000000000000000000000000000000000000000000000000000000000000000000000000000000000000000000000002C
:4054800000000000000000000000000000000000000000000000000000000000000000000000000000000000000000000000000000000000000000000000000000000000EC
:4054C00000000000000000000000000000000000000000000000000000000000000000000000000000000000000000000000000000000000000000000000000000000000AC
:020000040003F7
:0200000480007A
:4000000002150140021B01400448014003490140094D0140E280E810E280E81004085304C020D4208B049708B4041902780289029802B402C608DE02E201E8080201010093
:4000400001000000008B8B00000000003F00003F000000000000000000000000000000000000000000000000000000000000000000000000000000000000000000000000EB
:400080000000000000000000000000000000000000000000000000000000000000000000000000000000000000000000000000000000000000000000000000000000000040
:4000C0000000000000000000000000000000000000000000000000000000000000000000000000000000000000000000000000000000000000000000000000000000000000
:4001000000000000000000000000000000000000000000000000000000000000000000000000000000000000000000000000000000000000000000000000000000000000BF
:40014000000000000000000000000000000000000000000000000000000000000000000000000000000000000000000000000000000000000000000000000000000000007F
:0200000490006A
:0400000000004005B7
:0200000490105A
:04000000BC90ACAF55
:0200000490303A
:02000000AAFB59
:0200000490402A
:4000000000000000000000000000000000000000000000000000000000000000000000000000000000000000000000000000000000000000000000000000000000000000C0
:400040000000000000000000000000000000000000000000000000000000000000000000000000000000000000000000000000000000000000000000000000000000000080
:400080000000000000000000000000000000000000000000000000000000000000000000000000000000000000000000000000000000000000000000000000000000000040
:4000C0000000000000000000000000000000000000000000000000000000000000000000000000000000000000000000000000000000000000000000000000000000000000
:0200000490501A
:0C00000000012E16106900012E35BB64B3
:00000001FF