:400000000080002011000000290600002906000008B5044B1A6803F53F5302331A6000F00BFB00BFFA46004010B5054C237833B9044B13B10448AFF300800123237010BD13
:400040004081FF1F00000000980C0000084B10B51BB108490848AFF300800848036803B910BD074B002BFBD0BDE81040184700BF000000004481FF1F980C0000C880FF1FCA
:400080000000000008B500F03BFD0349102000F073FD62B608BD00BFD501000010B5FFF7F1FF002400F03CF801280FD10D4B9B78DBB2012B06D100F091FD032000F066F926
:4000C00000240AE000F0ACF9002406E0072C02D900F0A6F901E00134E4B2322000F036FDE0E700BF6081FF1F10B582B00446084600F08AF8ADF80600084B0022DA729C7295
:40010000BDF80620C2F306225A72BDF80620D2B21A7200F009FD02B010BD00BF20A000402A4B1B7803F0FF00002B4DD0284BDB7A03EB830303EB83039A0092B2234B9A80C4
:400140009B889BB2B3F57A7F03D901221F4B9A7102E000221D4B9A711D4B997AC9B21B4AD171597AC9B21172197AC9B25172DB7B13F0FF0F03D00122144B9A7202E0002278
:40018000124B9A72114B9B889BB243F2B062934213D80E4BDB79DBB2052B10D80B4B1B7ADBB2642B0DD8094B5B7ADBB2822B0AD80022064B1A7001207047002070470020B4
:4001C0007047002070470020704700BF5C81FF1FA0A000401022054B5A700122044B1A70044A137843F001031370704700A000405C81FF1FA0A00040312803D93238400094
:40020000C0B2704700207047C0EBC030024BA3FB003040F34F1070471F85EB51024B00221A705A70704700BF6881FF1F08B5FFF7F5FF08BD08B5124B1B889BB241F64C5254
:40024000934219D80E4B5B79DBB22D2B14D80C4B1B79DBB24F2B0FD9094BDB78DBB2012B0AD1074B9B7913F0FF0F05D1054B03221A7064225A7008BDFFF7D0FF08BD00BFFB
:400280006081FF1F6881FF1F10B5094B9B7913F0FF0F09D1074C03232370054B1879FFF7ABFF40B2607010BDFFF7B8FF10BD00BF6081FF1F6881FF1F0A4B9B7913F0FF0F4B
:4002C0000AD110B5084C03232370064B1879FFF793FF40B2607010BD034B08221A7064225A7070476081FF1F6881FF1F0D4B9B7913F0FF0F0FD10B4B1B79DBB2322B0AD935
:4003000010B5094C03232370064B1879FFF774FF40B2607010BD044B08221A7064225A70704700BF6081FF1F6881FF1F08B5154B9B7913F0FF0F16D1124B1B79DBB2322B3D
:4003400011D9104B1B889BB2B3F5FA6F0BD30D4B1B889BB2B3F5FA5F05D80B4B03221A7064225A7008BD074B9B79DBB2012B05D1054B08221A7064225A7008BDFFF74EFFC8
:4003800008BD00BF6081FF1F6881FF1F10B5224B5B79DBB2052B05D904461F4B5B79DBB25A2B02D9FFF73AFF2EE000F045F801280BD1194B9B7913F0FF0F06D12CB1174B8F
:4003C00003221A7064225A701EE0062C1AD8DFE804F004070A0D10131600FFF71FFF13E0FFF724FF10E0FFF725FF0DE0FFF74CFF0AE0FFF761FF07E0FFF778FF04E0FFF700
:4004000095FF01E0FFF70AFF044B1878597849B2FFF76AFE10BD00BF6081FF1F6881FF1F08B50020FFF7B2FF4FF4FA7000F08EFB002000F0D3FB08BD08B500F0C9FB08BD2A
:40044000FEE700BFF0B40022174611E050F82760F3B226F0FF0608E001EB420511F812406D78A5550132013BDBB2002BF4D10137042FEBD9F0BC7047064B1B78DBB203F0FE
:400480000701054A11701B09013213704422034B1A707047CF0100496E5800407658004008B50A46002100F0EEFB08BD38B502221E4B1A7008224FF040231A70032103F526
:4004C000007319701A4B1B78DBB21A490B701A4B1A8041F25122023B1A80002419250CE0164B1B7803F0010343EA440404F003044FF4F07000F080FB013D0DB1032CEFD17F
:4005000015B90320FFF79CFF0D4B4FF480721A8007221A7000220B490A704820023108701A700222033B1A7038BD00BF0043004008010049A14600402242004025420040EB
:40054000044000400640004008B500F091FB08BD38B572B6254A137843F00403137000240CE0234D630019194A0011462A44084691882858FFF794FF0134E4B2072CF0D94C
:400580001C494FF09040FFF75DFF1B4A137843F0020313701032137843F002031370082216491748FFF7D0FF082216491648FFF7CBFF082215491648FFF7C6FF154A137863
:4005C00043F008031370144C61232370FFF76EFF812323700122114B1A70FFF74DFF0E220F491048FFF7B0FF38BD00BFE84600409C0C000014000048035001403C0000481B
:40060000F251004044000048125100404C00004822510040224300400048004004000840A0430040B043004008B500F0F5FA03680C2B00D1FEE7FEE708B5104E104D16E0AB
:4006400029686B68AC68002204E051F8040B43F8040B0432A242F8D1E868002203E0002143F8041B04328242F9D11035013E002EE6D100F0D7FAFFF711FDFEE701000000CF
:40068000540E000008B5104A104B1A60104A136843F40073136000230AE0032B03D80D4A52F8231000E00C490C4A42F8231001332F2BF2D90A4B1A780A4B1A70074A0A4B53
:4006C0001A60FFF745FF08BD0004FA050CED00E014ED00E000000000290600000080FF1FBC760040C080FF1F08ED00E0064B1A7842F001021A701B7813F0010F01D1012017
:4007000070470020704700BF04A0004008B500F07BFA154A137843F0010313701032137843F00103137000F073FA41F201020F4B1A60FFF7DBFF4FF480320D4B1A600D4AE6
:40074000136843F0010313604FF4107300E0013B23B1084A126812F0010FF8D00BB9012008BD002008BD00BFA643004000A0004000E100E010A0004010F4004F07D1064B74
:4007800018801B889BB2984203D001207047022070470020704700BF16A0004050B90D4B5A7802F0EF025A705B7813F0100F0CD001207047074B5A7842F010025A705B7839
:4007C00013F0100F03D101207047002070470020704700BF14A0004030B4841EE4B20D2C28D88C1EE4B2052C02D92BBB012925D1032A25D8904225D3914225D3164D6C781D
:4008000004F0F004204368706C78E4B2A0421DD10BB9002000E002204B01DBB29200D2B2134303430C4A13701278D2B293420FD001200EE002200CE002200AE0022008E00C
:40084000022006E0022004E0022002E0012000E0002030BC704700BF14A0004050B90D4B1A7802F0EF021A701B7813F0100F0CD001207047074B1A7842F010021A701B78E1
:4008800013F0100F03D101207047002070470020704700BF14A0004050B90D4B1A7802F0FE021A701B7813F0010F0CD001207047074B1A7842F001021A701B7813F0010FF7
:4008C00003D101207047002070470020704700BF14A00040044B18801B889BB2984201D0012070470020704704A0004003785B01214A416841F08011995003785B019918B8
:400900009A5802F07F12436823F080139A4228D183680B610278184B03EB421319698268914220D1C2685A610278134B03EB42135969C268914218D14FF0FF329A610278E8
:400940000D4B03EB42139A69B2F1FF3F0FD10022DA610278084B03EB4213DB694BB101207047012070470120704701207047012070470020704700BFA0A00040017809019A
:40098000114A436843F4000343F008038B5003781B0199189B580D4A1A40436823F4000323F008039A420BD183684B600278064B03EB02135A6883689A4203D001207047BF
:4009C000012070470020704720A00040F7007F0038B5002409E004EB440293000E481844FFF7CCFF28B90134E4B2072CF3D9002500E001254DB10DE0084800EB0410FFF797
:400A000075FF30B90134E4B200E000240F2CF3D900E00125284638BDCC0C00002C0D000008B500F0F1F8324A137843F0010313701032137843F00103137000F0E9F82D4AE3
:400A4000137803F0FE0313704FF4F05300E0013B23B1284A127812F0010FF8D1002B3CD04FF48032244B1A602449102000F084F80721102000F094F80220FFF77DFE88B961
:400A8000FFF78CFE80B90023032204210920FFF7A3FE58B9FFF7E2FE50B9FFF7FDFE48B1012308E0012306E0012304E0012302E0012300E0002393B9FFF78AFF88B941F2EC
:400AC0000100FFF707FF70B90A4B00221A701B7813F0010F09D0012008BD012008BD012008BD012008BD012008BD002008BD00BFA643004010A0004080E100E0250B0000A4
:400B000008B5074B1B7813B9FFF78AFF00E0002020B90122024B1A70FFF7F8FD08BD00BF6A81FF1F704700BF064B1B7813F0010F06D1044A136843F00103136000207047EF
:400B40000120704720A0004001BE704710B5044605E0084B186800F04FF8A4F50044B4F5004FF6D8034B586800FB04F000F044F810BD00BFCC80FF1F70B504460E46074B52
:400B80001D681F2802D90020FFF7DEFF04F01F04103455F8240045F8246070BD08ED00E038B504460D46072902D90020FFF7CCFF1F2C02D90020FFF7C7FF04F01F0000F190
:400BC000604000F564406D01EDB2057038BD00BF014B1878C009704721510040044A137803F0BF03800100F0400018431070704720510040000000000230800803D000BFAA
:400C000001380046FCD17047EFF3108072B6704780F31088704700BF014B1868704700BF3C81FF1F0E4B70B51E460E4C0025E41AA410A54204D056F8253098470135F8E75D
:400C400000F0F6F8084B094C1E46E41AA4100025A54204D056F8253098470135F8E770BD3C0E00003C0E00003C0E0000440E000010B5431E0A44914204D011F8014B03F899
:400C8000014FF8E710BD03460244934202D003F8011BFAE77047000000000000005100401000305100404000C0510040100000000140001000140140000800400140000A17
:400CC000004C0140000200500140200000000000000004000000E01901000000000000000000000002000000000000000000000003000000000000000000000004000000AD
:400D000000000000000000000500000000000000000000000600000000000000000000000700000000000000000000000000000028000000F9FF1F000000007D01000000E4
:400D40000000000000000000000000000200000000000000000000000000000003000000000000000000000000000000040000000000000000000000000000000500000065
:400D80000000000000000000000000000600000000000000000000000000000007000000000000000000000000000000080000000000000000000000000000000900000015
:400DC0000000000000000000000000000A0000000000000000000000000000000B0000000000000000000000000000000C0000000000000000000000000000000D000000C5
:400E00000000000000000000000000000E0000000000000000000000000000000F00000000000000000000000000000043000000F8B500BFF8BC08BC9E4670474D00000086
:400E400085060000F8B500BFF8BC08BC9E46704729000000680E0000C880FF1F780000003000000000000000000000000000E02EC05D00001800000000366E0100000000D3
:400E8000000000000000000000000000000000000000000000000000000000002C0E00000000000000000000000000000000000000000000000000000000000000000000F8
:400EC00000000000000000000000000000000000000000000000000000000000DC80FF1F000000000000000000000000000000000000000000000000000000000000000078
:400F000000000000000000000000000000000000000000000000000000000000000000000000000000000000000000000000000000000000000000000000000000000000B1
:400F40000000000000000000000000000000000000000000000000000000000000000000000000000000000000000000000000000000000000000000000000000000000071
:400F80000000000000000000000000000000000000000000000000000000000000000000000000000000000000000000000000000000000000000000000000000000000031
:400FC00000000000000000000000000000000000000000000000000000000000000000000000000000000000000000000000000000000000000000000000000000000000F1
:020000040003F7
:0200000480007A
:4000000002150140021B01400448014003490140094D0140E280E810E280E81004085304C020D4208B049708B4041902780289029802B402C608DE02E201E8080201010093
:4000400001000000000B0B0000000000BFFF40000000000000000000000000000000000000000000000000000000000000000000000000000000000000000000000000006B
:400080000000000000000000000000000000000000000000000000000000000000000000000000000000000000000000000000000000000000000000000000000000000040
:4000C0000000000000000000000000000000000000000000000000000000000000000000000000000000000000000000000000000000000000000000000000000000000000
:4001000000000000000000000000000000000000000000000000000000000000000000000000000000000000000000000000000000000000000000000000000000000000BF
:40014000000000000000000000000000000000000000000000000000000000000000000000000000000000000000000000000000000000000000000000000000000000007F
:0200000490006A
:0400000000004005B7
:0200000490105A
:04000000BC90ACAF55
:0200000490303A
:02000000CD2011
:0200000490402A
:4000000000000000000000000000000000000000000000000000000000000000000000000000000000000000000000000000000000000000000000000000000000000000C0
:400040000000000000000000000000000000000000000000000000000000000000000000000000000000000000000000000000000000000000000000000000000000000080
:400080000000000000000000000000000000000000000000000000000000000000000000000000000000000000000000000000000000000000000000000000000000000040
:4000C0000000000000000000000000000000000000000000000000000000000000000000000000000000000000000000000000000000000000000000000000000000000000
:0200000490501A
:0C00000000012E16106900012E1ADD8987
:00000001FF